:020000040800F2
:1000000080310020CD020008E53D00084D39000890
:10001000E13D00081F1D0008154B0008000000000E
:100020000000000000000000000000003502000891
:10003000D11D000800000000790200087541000889
:10004000E7020008E7020008E7020008E7020008EC
:10005000E7020008E7020008E7020008E7020008DC
:10006000E7020008E7020008E7020008E7020008CC
:10007000251D0008351D0008451D0008751D0008D8
:10008000E7020008E7020008E7020008E7020008AC
:10009000E7020008E7020008E7020008E70200089C
:1000A000E7020008E7020008E7020008E70200088C
:1000B000E7020008E7020008E7020008E70200087C
:1000C000E7020008E7020008E7020008E70200086C
:1000D000E70200082D490008E7020008E54A000889
:1000E000E7020008E7020008E702000800F002F853
:1000F00000F090F80AA090E8000C82448344AAF132
:100100000107DA4501D100F085F8AFF2090EBAE82F
:100110000F0013F0010F18BFFB1A43F0010318473B
:100120000087000020870000103A24BF78C878C1FB
:10013000FAD8520724BF30C830C144BF04680C60ED
:10014000704700000023002400250026103A28BF35
:1001500078C1FBD8520728BF30C148BF0B60704739
:100160006E2900F0FB81702900F03D83662908F0BC
:100170000882652908F00582672908F00282612952
:1001800008F0018203681B0A28BF41F08001692939
:1001900000F0A881642900F0A581752900F0A281F2
:1001A0006F2900F0CA82782900F00983E92900F05C
:1001B0006582E42900F06282F52900F05F82EF2970
:1001C00000F0C782F82900F008830368DB0928BF24
:1001D00041F08001632901F05F80732901F06480A0
:1001E000E32901F06F80F32901F07480002070474B
:1001F0001FB501F0C1F804000020002107F088FCC1
:10020000401C60600020002107F06CFCE0601FBD16
:1002100010B510BD01F082F81146FFF7E9FF04F0B8
:100220007DFD01F05FF903B4FFF7F2FF03BC01F0BD
:10023000A7F90000224B19680868B0E8F00F80F3B6
:100240000988BFF36F8F4FF0000080F311884EF0E4
:100250000D0E70470000000006480068006880F33B
:10026000088862B661B6BFF34F8FBFF36F8F00DFB0
:1002700000BF00BF08ED00E0EFF30980BFF36F8F10
:100280000F4B1A6820E9F00F106008B54FF05000CE
:1002900080F31188BFF34F8FBFF36F8F06F074FAAE
:1002A0004FF0000080F31188BDE808401968086825
:1002B000B0E8F00F80F30988BFF36F8F704700BF7D
:1002C00034000020EFF305807047000009488047A4
:1002D00009480047FEE7FEE7FEE7FEE7FEE7FEE728
:1002E000FEE7FEE7FEE7FEE704480549054A064B40
:1002F00070470000EB410008ED0000088025002059
:100300008031002080290020802900201CB50C4667
:10031000064B7B4469460090204600F038F90446BD
:100320000020694600F046F920461CBD9F020000EF
:10033000032A40F2308010F0030C00F0158011F811
:10034000013BBCF1020F624498BF11F801CB00F8E9
:10035000013B38BF11F8013BA2F1040298BF00F83D
:1003600001CB38BF00F8013B11F0030300F00A8312
:10037000083AC0F0088051F8043B083A51F804CB21
:10038000A0E80810F5E7121D5CBF51F8043B40F8E7
:10039000043BAFF30080D20724BF11F8013B11F8F2
:1003A00001CB48BF11F8012B24BF00F8013B00F836
:1003B00001CB48BF00F8012B704702F0FF0343EA6E
:1003C000032242EA024200F011BB4FF0000200B5E6
:1003D000134694469646203922BFA0E80C50A0E868
:1003E0000C50B1F12001BFF4F7AF090728BFA0E816
:1003F0000C5048BF0CC05DF804EB890028BF40F8E2
:10040000042B08BF704748BF20F8022B11F0804F23
:1004100018BF00F8012B704770477047704770B5E0
:10042000044685690068C10601D5302600E0202613
:10043000C00707D070BDD4E9012130469047206A3B
:10044000401C20626D1EF6D570BD70B504468569EE
:100450000078C00707D170BDD4E901212020904762
:10046000206A401C20626D1EF6D570BD09684A05E1
:1004700001D540B27047C905FCD500B27047096884
:100480004A0501D5C0B27047C905FCD580B2704796
:1004900070B50C460546012A05D02878800600D59F
:1004A000EA69002302E0012305E05B1C934202D2CB
:1004B000E05C0028F9D1A869E618C01AA861286A8A
:1004C000184428622846FFF7AAFF04E0D5E9012175
:1004D00014F8010B9047B442F8D32846FFF7B5FF54
:1004E00070BD00002DE9F041064600241068752912
:1004F000314616A510D0FFF7B9FF002802DA4042B6
:1005000013A507E031688A0701D512A502E0490763
:1005100004D511A5012401E0FFF7B1FF00210A2253
:1005200006F1240709E0B0FBF2FCB0FBF2F302FB9A
:100530001C00303078541846491C0028F3D123465B
:100540002A463046BDE8F04100F0B5BA0000000090
:100550002D0000002B000000200000001168026840
:10056000006A530501D508700AE0D30501D508805B
:1005700006E0130603D5C217C1E9000200E00860D7
:100580000120704701694A1C02610878704700B574
:100590008FB0CDE901310021059105497944CDE9BC
:1005A00003101146684600F029F90FB000BD0000A5
:1005B000E5FFFFFF0A6802F8010B0A6070470000C0
:1005C0002DE9FF5F15468A460446DFF8AC80F84403
:1005D0000027D8E900103E46CDE9001010E03AF8B7
:1005E00016106A4602A800F079FE411C07D0217857
:1005F000890603D5E269391891420DD80744761C63
:100600002078800602D5E069B84205DDAE42E6DB1F
:100610003AF816000028E2D1A069C01BA06120466C
:10062000FFF7FDFED8E90010CDE90010002017E02B
:100630003AF818106A4602A800F050FEB0F1FF3FE9
:1006400081460BD000250DF1080B05E0D4E901210E
:100650001BF8050090476D1C4D45F7D308F10100CC
:10066000B0428046E4DB206A384420622046FFF72F
:10067000ECFEBDE8FF9F0000CE8000002DE9F041B8
:100680008046D21D22F007020025D2E90002F5299A
:1006900015A614D0011E72F1000106DA0023D0EB7A
:1006A000030063EB020211A608E0D8F800108B07E4
:1006B00001D50FA602E0490701D50EA60125114676
:1006C000002408F1240704E000F0B0F930323A5574
:1006D000641C50EA0102F7D12B46324621464046BF
:1006E000BDE8F04100F0E7B9000000002D00000077
:1006F0002B0000002000000030B4002100F1240491
:1007000008E002F00705D208303542EA4372DB0800
:100710006554491C52EA0305F3D10468002310A272
:10072000250707D5A40600D421B1C46901230DA271
:10073000641EC46130BC00F0BEB910B50446214649
:100740001068FFF79CFE02462046BDE810400023DB
:10075000D2E7D21D22F00701D1E90023CCE7000047
:100760000000000030000000F0B40D4601880905CB
:1007700002D5214C7C4402E01F4C7C440E34002105
:1007800000F1240608E002F00F071209E75D42EAD3
:1007900003721B097754491C52EA0307F3D102780C
:1007A0000023120704D5702D06D009B1022311349D
:1007B0002246F0BC00F07FB901231034F8E770B591
:1007C00004460D4621461068FFF759FE02462946A9
:1007D0002046BDE870400023C6E7D21D22F0070383
:1007E000D3E90023C0E70368126843F020030360E5
:1007F0000823C3610023B7E7307F00002DE9F05FD5
:10080000894604464FF0000ADFF874B1FB44C0F893
:1008100020A02046E1688847002874D0252806D00B
:10082000D4E901219047206A401C2062F1E70026AC
:100830005F462046E16888472028054607DB312DC2
:1008400005D2781910F8200C08B10643F1E7B0077B
:1008500001D526F00406C4F81CA00027C4F818A08F
:100860002A2D09D0284604F090F938B304EB870804
:10087000303DC8F8185019E059F8041B204604EB25
:1008800087029161E1688847012F054618D1E06928
:10089000002820DA26F020061DE0D8F8180000EB2A
:1008A000800005EB40003038C8F818002046E168A9
:1008B0008847054604F069F90028EED1012F0AD0D7
:1008C0002E2D08D12046E16888477F1C0546022F5F
:1008D00046F02006C4DBA069002803DA404246F057
:1008E0000106A061F00701D026F010066C2D0BD098
:1008F000682D09D04C2D39D06A2D35D0742D35D0C6
:100900007A2D33D016E038E0E1682F46204688473C
:10091000B842054609D16C2F26D04FF48060E168BB
:10092000064320468847054604E06C2F1AD04FF452
:10093000807006430DB3A5F14100192802D8203577
:1009400046F400664A462946204626604E46FFF792
:1009500007FC80B101280BD0F61D26F0070000F13E
:10096000080956E74020E4E78020D8E70020D6E7D2
:1009700006F104094DE7284652E7206ABDE8F09FDA
:10098000C07E000010B5203AC0F00B80B1E81850CE
:10099000203AA0E81850B1E81850A0E81850BFF469
:1009A000F5AF5FEA027C24BFB1E81850A0E8185008
:1009B00044BF18C918C0BDE810405FEA827C24BF5C
:1009C00051F8043B40F8043B08BF7047D20728BFEA
:1009D00031F8023B48BF11F8012B28BF20F8023B39
:1009E00048BF00F8012B70474FF000020429C0F007
:1009F000128010F0030C3FF4EAACCCF1040CBCF113
:100A0000020F18BF00F8012BA8BF20F8022BA1EBA2
:100A10000C01FFF7DCBC5FEAC17C24BF00F8012BAE
:100A200000F8012B48BF00F8012B704730B5B0F13A
:100A30000A024FEA900E71F100034EEA817EB0EB9C
:100A40000E0061EB91014FEA101E4EEA017E10EBA1
:100A50000E0041EB11114FEA102E4EEA016E10EB21
:100A60000E0041EB11214FEA104E4EEA014E10EB01
:100A70000E0041EB1141401841F100014FEAD00056
:100A800040EA41704FEAD10110EB80054FEA810442
:100A900044EA907444EB01046D1944EB0404521BC6
:100AA000A3414FF0000348BF0A3200D530BD401CBF
:100AB00041F1000130BD2DE9F0470D4699469246BF
:100AC000044600F124080168880604D5E06921F095
:100AD0001001216000E00120A84201DD471B00E079
:100AE0000027A1697A1902EB0900081AA061207891
:100AF000C00602D42046FFF792FC002608E0D4E9A5
:100B000001211AF806009047206A401C761C2062DA
:100B10004E45F4DB2078C0060AD52046FFF77FFC5F
:100B200006E0D4E9012130209047206A401C206271
:100B3000381EA7F10107F4DC07E0D4E9012118F819
:100B400005009047206A401C2062281EA5F101057F
:100B5000F3DC2046FFF779FC2078000602D502205E
:100B6000BDE8F0870120FBE770472DE9FF4F0C46F9
:100B70001E464FF0FF378BB0D2E90001DDF86080F0
:100B80000A908A46C1F30A5505B93D460021084638
:100B90004FF00000BAF1000F00F4400005DA00EB5E
:100BA00080004FF4400101EA50004FEA9059B9F13A
:100BB000010F00DDB9460A9850EA4A000ED044F60B
:100BC0001050A5F2FF3545432F14B8F1000F1ED089
:100BD0007542291E1EDDC9F100021CE0B8F1010FAB
:100BE0004FF0000001D0302103E0F24305E0215432
:100BF000401CB042FBDB30460022002121540B99FF
:100C0000C1F80880C1E900200FB0BDE8F08FBD1B1E
:100C10006D1CDEE74A4600DA694206A800F0F0FBE8
:100C200006AB93E8070003AB83E8070050460A9938
:100C300000F0ADFC8DE80700A0F500501F380090D3
:100C40000398002D0ADD42F21F014A4608440023A2
:100C500003A90390684600F016FF09E0A0F50050D4
:100C60004A461F38002303A90390684600F020FF7E
:100C70008DE807000004000C03D04FF0FF3041085E
:100C800000E01046B8F1000F03D000220092154694
:100C90001EE0751E05D4FFF7C9FE303262556D1E89
:100CA000F9D5B3460122084302D000227F1C04E09C
:100CB0002078302801D100227F1E002A099784D095
:100CC0001DE0112D07DAFFF7B1FE303262556D1CC1
:100CD00050EA0102F5D1084302D00098C8B10EE0F5
:100CE0000021681E05E0235C625C63542254401EB0
:100CF000491C8142F7DBAB46A81B401E099000202F
:100D000004F80B000B98099AC0F80880C0E9002B82
:100D10007AE711264FF0000857E72DE9F04F884693
:100D20000446D21D22F0070191B0D1E90001CDE9BE
:100D30000A0103F0F1FE02460B98C00F01D02D20EE
:100D400007E02068810701D52B2002E0202101EA7D
:100D5000C000032A099001D0072A05DB034641465B
:100D6000204600F00DFB0BE12078800601D5E069FC
:100D700000E00620B8F1650F814606D0B8F1660F95
:100D800018D0B8F1670F70D131E00020B9F1110F20
:100D9000009001DB112301E009F101030AAA01A976
:100DA0000CA8FFF7E2FEDDE90C70002609F1010551
:100DB000834647E001204B4600904FF000470AAAC7
:100DC00001A90CA8FFF7D1FEDDE90DB00C995D4635
:100DD000002610B909F101000D18B9EB050003D484
:100DE000C0F1FF3609F10105A5EB09002BE0B9F1CF
:100DF000010F01DA4FF001090020B9F1110F009045
:100E0000484601DD112300E003460AAA01A90CA807
:100E1000FFF7ABFEDDE90C704D46002683462078D7
:100E200000070AD4AB4500DA5D4601A8012D04DDB8
:100E3000411911F8011C302907D04F4502DA17F18A
:100E4000040F04DA012082460FE06D1EEEE7002F4A
:100E500002DCED1B3E4403E0781CA84200DD7D1C53
:100E6000B81B00F1010A4FF000472078000703D4B7
:100E7000AA4501DB4FF0FF3A0021B7F1004F0DF119
:100E800043088DF8431024D002202B23002F01DAD1
:100E90007F422D230A21021EA0F1010000DC5FB178
:100EA00097FBF1FC97FBF1F201FB1C7C17460CF160
:100EB000300C08F801CDEEE7A8F10100037021889D
:100EC000090501D5452100E06521A0F1010800F8E0
:100ED000011C09980FA9A1EB0807FF1D00B1012013
:100EE000411901EBEA70A1693844081A401EA0615B
:100EF0002078C00602D42046FFF791FA099828B15D
:100F0000D4E901219047206A401C20622078C00665
:100F100022D52046FFF783FA1EE0002E04DBB345FE
:100F200002DD01A8805D00E03020D4E90121904776
:100F3000206A401C2062761CAAF101005FEA000AC8
:100F40000AD100F019FAC0680168405CD4E90121B7
:100F50009047206A401C2062281EA5F10105DCDCB8
:100F600007E0D4E9012118F8010B9047206A401CE2
:100F70002062381EA7F10107F3DC2046FFF765FA6F
:100F8000032011B041E600002DE9F04F04460D4664
:100F9000D21D22F0070089B0D0E9009748463946B3
:100FA00003F0BAFD0246F80F01D02D2307E02068B8
:100FB000810701D52B2302E0202101EAC0038DF82F
:100FC00020300BB1012000E00020032A824601D02E
:100FD000072A04DB2946204600F0D2F93FE12078B9
:100FE000800601D40D2500E0E569C7F30A560D2DF2
:100FF00049DA00214FEA175B08464FF00000002F46
:1010000000F4400007DA00EB80004FF4400100EBF1
:10101000D07001EA60008115012901DD4FF0FF3138
:1010200000224FEA850CBCF1180F06D31346ACF131
:1010300018004FF08052C24003E04FF4801323FAAF
:101040000CF30CF10C0CBCF1200F04D3ACF1200C10
:1010500009FA0CF001E007FA0CF000294FF0004803
:1010600001DD18B90FE00ED140450CD319EB020990
:101070005F4121B9404502D19F4329EA0209BBEBF8
:10108000175F00D0761C2088000502D57B48784485
:1010900002E07A487844193808AA302302F80A3066
:1010A000037C0AF10101002E0AF1020A53546A4638
:1010B00002DC4FF0300101E04FF031014FF0010848
:1010C0008DF8001002D0A6F2FF3603E059EA47017E
:1010D00000D06B4E002D02DC2178090704D54FF0BB
:1010E00002082E218DF80110C44600210BE0C7F341
:1010F00003433F01C35C491C6D1E02F808300529FB
:1011000008F1010801DA002DF1DC00210CE000EB10
:101110001973491C1B786D1E082902F808304FEA24
:10112000091908F1010801DA002DF0DC21688B06AD
:1011300002D516E0A8F10108E04505DD02EB080341
:1011400013F8013C302BF5D0B8F1000F09DD02EBAC
:10115000080313F8013C2E2B03D1090701D4A8F191
:101160000108002D05DD3E2102F808106D1E08F172
:101170000108407C002E02F8080008F1010804DA9A
:101180002D20764202F8080002E02B2002F8080029
:101190000A214FF47A70864208F101080BDB96FBB6
:1011A000F0F3303302F8083096FBF0F308F1010851
:1011B00000FB136601E0642E0CDB642096FBF0F369
:1011C000303302F8083096FBF0F308F1010800FB19
:1011D000136601E00A2E06DB96FBF1F0303002F8D0
:1011E000080008F1010896FBF1F001FB10603030B7
:1011F00002F80800A16908F1010808EB050202EBFA
:101200000A00081AA0612078C00602D42046FFF721
:1012100006F9216A08AE01EB0A00206204E0D4E975
:10122000012116F8010B9047BAF1010AF7D2207894
:10123000C00602D52046FFF7F2F86E4609E016F820
:10124000010B3E280FD0D4E901219047206A401CB1
:101250002062B8F10108F2D22046FFF7F6F809B093
:101260000320BDE8F08F206A2844206203E0D4E91F
:101270000121302090476D1EEBD3F8E76276000025
:1012800002FCFFFF10B5436913B1AFF3008001E02A
:10129000FFF7FEF8012010BD127800F124010A705A
:1012A00000224A700122EDE711684FF0FF32E9E7B2
:1012B00010B5436913B1AFF3008001E0FFF780F987
:1012C000012010BD128800F1240182840022C28412
:1012D0000122EDE711684FF0FF32E9E770B51646DD
:1012E0000C46054600F040F8036893F80101012818
:1012F00006D0FF2C0FD8185D68B101202C7070BD8E
:10130000D3F807013246214603F207130344284667
:10131000BDE8704018474FF0FF3070BD754600F0D3
:10132000EBF8AE4605006946534620F007008546B7
:1013300018B020B5FEF7D8FFBDE820404FF00006FA
:101340004FF000074FF000084FF0000B21F00701AD
:10135000AC46ACE8C009ACE8C009ACE8C009ACE8F0
:10136000C0098D467047000010B500F005F8001D5B
:1013700010BD00BF9D670000004870473C2500205D
:101380002DE9F0411F46044603260168072A01F4AF
:10139000006004DB08B116A505E016A503E008B15E
:1013A00015A500E015A521F010002060A069C01E61
:1013B000A0610FB1401EA0612046FFF730F84FB189
:1013C000D4E9012138469047206A401C2062C01CA5
:1013D000206206E0206AFAE7D4E9012115F8010B42
:1013E0009047761EF8D22046FFF72FF8BDE8F0812F
:1013F0004E414E006E616E00494E4600696E6600B9
:101400002DE9F047814616468AB0354878440DC824
:101410008DE80D0032487844801C03AC0DC884E888
:101420000D0041F69B300844372190FBF1F290FB10
:10143000F1F5A5F1800501FB12041B3C02D56442C5
:10144000012000E00020DFF898A080460027FA4441
:10145000AAF1BE0A0EE0E0070AD03246684607EB62
:10146000470101230AEB810100F022FB8DE8070010
:1014700064107F1C002CEED1194F7F44AE3F19E061
:10148000E80715D007EB04100DF1180A90E80E00DC
:101490008AE80E00C068F04201D1981908903246DF
:1014A000012306A903A800F003FB03AB83E80700B0
:1014B0006D10641C002DE3D14FF0010332466946E4
:1014C000B8F1000F03A802D000F0DDFA01E000F04F
:1014D000EFFAC9E90001C9F808200AB0BDE8F087B1
:1014E0007473000010B50446AFF300802046BDE8D9
:1014F0001040FEF798BE0000004870471C250020F1
:101500004FF0013C50F8042B51F8043B9A4221D192
:10151000A2EB0C03934313EACC1317D150F8042B1E
:1015200051F8043B9A4215D1A2EB0C03934313EA02
:10153000CC130BD150F8042B51F8043B9A4209D13B
:10154000A2EB0C03934313EACC13DBD04FF0000063
:10155000704700BFD01A01BAB1FA81F101F0180149
:1015600022FA01F0CB40C1F12001DBB2C0B2C01AB7
:101570002CFA01F3D11A914311EAC311E6D1704755
:1015800001491820ABBEFEE72600020070475FEA63
:10159000400C08BF91F0000F4FEA8C234FEAC122A4
:1015A00043EA51514FEA1C5018BF00F5F0404FEA92
:1015B000300018BF41F000415FEA6C5C00F0298008
:1015C000BCF1FF3F08BF40F080407047130C06BFDE
:1015D00012044FF0100C4FF0000C130E04BF120257
:1015E0000CF1080C130F04BF12010CF1040C930F43
:1015F00004BF92000CF1020CD30F04BF52000CF197
:10160000010C11464FF00002A0F11F00A0EB0C00EE
:10161000704711F0004F08BF704731F000413FF4B0
:10162000D5AF0B0C06BF09044FF0100C4FF0000CA7
:101630000B0E04BF09020CF1080C0B0F04BF0901CB
:101640000CF1040C8B0F04BF89000CF1020CCB0FC2
:1016500004BF49000CF1010CCCF12003A0EB0C00FD
:1016600022FA03F302FA0CF241EA030100F101004D
:10167000704720F07F4C80EA030023F07F47ACEBFB
:10168000070303F57C5300F0004003F1FF032DE94D
:1016900080494FEA154B09B44FEA144325EA0B4E33
:1016A00024EA03480FF2042606EB132749083E7884
:1016B0005FEA320203FB0667C7F5000707FB06F681
:1016C0004FEA54374FEAD64606F1020607FB066C8E
:1016D000CCF1005C4FEA1C472CEA074C07FB06F4F0
:1016E0000CFB06F504EB15464FEA961634BF0020B6
:1016F0004FF000404FEAD13706FB07FC4FEA1C4C85
:101700000CFB0BF7D21B03FB0CF761EB07010CFB87
:101710000EF7B0EB074072EB17420CFB08F734BF33
:10172000A2EB0742B2EB074261EB17414FEA0C44D0
:101730004FEA910706FB07FC4FEA1C4C0CFB0BF72A
:10174000B0EBC74072EB573203FB0CF734BFA2EB90
:10175000C742B2EBC74261EB57310CFB0EF7B0EB5F
:10176000C70072EB57720CFB08F734BFA2EBC7023D
:10177000B2EBC70261EB5771039F4FEA816141EA07
:10178000921104EBCC044FEAD1374FEA826206FB98
:1017900007FC42EA90124FEA80604FEA1C4C0CFBB7
:1017A0000BF7D21B03FB0CF761EB07010CFB0EF7E9
:1017B000B0EB074072EB17420CFB08F734BFA2EB0B
:1017C0000742B2EB074261EB17414FEA8C554FEAF3
:1017D000910704EB9C2406FB07FC4FEA1C4C0CFB16
:1017E0000BF7B0EBC74072EB573203FB0CF734BF7B
:1017F000A2EBC742B2EBC74261EB57310CFB0EF7CD
:10180000B0EBC70072EB57720CFB08F734BFA2EBCA
:10181000C702B2EBC70261EB577115EB4C254FEADB
:10182000816141EA92114FEA82624FEAD13742EA7E
:10183000901206FB07FC44F100044FEA80604FEA77
:101840001C4C0CFB0BF7D21B03FB0CF761EB0701E5
:101850000CFB0EF7B0EB074072EB17420CFB08F7DE
:1018600034BFA2EB0742B2EB074261EB174115EB25
:101870001C154FEA813141EA92414FEA823242EA35
:1018800090424FEA80304FEA0C7644F1000448EA77
:1018900003434EEA0B484FF0000EB2EB080C71EB1D
:1018A000030724BF624639464EEB0E0E4FF0000B85
:1018B0000018524149414BEB0B0BB2EB080C71EB9A
:1018C00003077BF1000B24BF624639464EEB0E0E38
:1018D0004FF0000B0018524149414BEB0B0BB2EBA0
:1018E000080C71EB03077BF1000B24BF62463946FD
:1018F0004EEB0E0E51EA020718BF46F0010616EB3A
:101900000E7655F1000254F1000103D5BDE88901BE
:10191000BDE80088BDE88901BDE80048B61952411C
:1019200041EB0101A3F10103704780807F7E7D7C44
:101930007B7A7978777676757473727171706F6E61
:101940006E6D6C6C6B6A6A6968686766666564640C
:10195000636362616160605F5F5E5E5D5D5C5C5B96
:101960005B5A5A5959585857575656555555545405
:10197000535352525251515050504F4F4F4E4E4D63
:101980004D4D4C4C4C4B4B4B4A4A4A4949494848AF
:1019900048474747474646464545454444444443EF
:1019A00043434342424242414141002B9C4630D492
:1019B00077002BD01CB54FEA370703B44FF0100067
:1019C0004FF01001BAF1000F06D0BCF1000FDCBFE0
:1019D00040F0080040F008014FF000000FBCBDE8E7
:1019E00010400BF1010BBBF1010F08BF5FEA1707B5
:1019F00022BF12F1010211F101014FF0004143F148
:101A0000000300F0004043EA00007047F9D3570894
:101A1000D0E746EA064613F1400F4FEA16461FDDAF
:101A200013F1200FDFBF16430A46002120335B422B
:101A3000BED0C3F1200746EA064602FA07F74FEA8E
:101A4000164646EA0706C3F1200722FA03F201FA16
:101A500007F721FA03F14FF0000342EA0702A7E774
:101A600046EA020646EA06464FEA164646EA0106F6
:101A7000BCBF46EA0646360C4FF000034FF00002AA
:101A80004FF0000194E72DE9804C9A46934670B4DC
:101A900091E8380007C831EA400C48BF34EA430CEB
:101AA00003D5FFF7E6FDFFF780FFF0BCBDE8008C33
:101AB0002DE9804C9A46934670B491E8380007C8E7
:101AC00010F0804F08BF13F0804F03D100F005F8ED
:101AD000FFF76BFFF0BCBDE8008C20F07F4780EA89
:101AE000030023F07F4C07EB0C03A3F57C5300F0BD
:101AF0000040A3F1FE0392F0000F00F0B38095F0D8
:101B0000000F00F077802DE901494FEA11404FEABC
:101B1000144621EA004800FB06FC24EA064708FBBD
:101B200006F607FB08F800FB07F718EB06484CEB36
:101B3000164C4FEA124B18EB07484FEA15464CEB90
:101B4000174022EA0B4E0BFB06FC25EA06470EFB6C
:101B500006F607FB0EFE0BFB07F71EEB064E4CEBE3
:101B6000164C4FF000061EEB074E4CEB174B18EBD4
:101B70000B0840F1000018EB0E0B58EB000840F189
:101B800000008F1A4FF000013CBFC943661B14BF11
:101B9000B5EB040C00213CBFC943F61B4FEA1744C8
:101BA0004EEA8E0E27EA04454FEA1C4704FB076203
:101BB0002CEA074C05FB07F70CFB05F604FB0CFCB5
:101BC00016EB074642EB174216EB0C4642EB1C4263
:101BD0001BEB060658EB0202414146EA9E0601D580
:101BE000BDE80189B619524141EB0101A3F101039E
:101BF000BDE801894FEA14454FEA114724EA05463A
:101C000021EA074C05FB07F406FB07F70CFB06F17E
:101C100005FB0CFC11EB074144EB17444FEA12475C
:101C200011EB0C4144EB1C4422EA074C05FB07F284
:101C300006FB07F70CFB06F605FB0CFC16EB07464C
:101C400042EB174216EB0C4642EB1C456A1854F166
:101C5000000148BF7047B619524141EB0101A3F1A1
:101C60000103704795F0000F37D04FEA11424FEA59
:101C7000144721EA024624EA074C02FB07F106FB5F
:101C800007F70CFB06F402FB0CFC14EB074441EBDA
:101C900017414FEA154714EB0C4441EB1C4125EA70
:101CA000074C02FB07F506FB07F70CFB06F602FBE9
:101CB0000CFC16EB074645EB174516EB0C4645EBBF
:101CC0001C42121951F1000148BF7047B619524128
:101CD00041EB0101A3F1010370474FEA14454FEABC
:101CE000114724EA054621EA074C05FB07F106FBEC
:101CF00007F70CFB06F24FF0000605FB0CFC12EB9D
:101D0000074241EB174112EB0C4251EB1C4148BF1B
:101D10007047921841EB0101A3F10103704700BF26
:101D2000FEE7000010B5024800F0DAF810BD000030
:101D3000E402002010B5024800F0D2F810BD000007
:101D4000A002002010B500BF5021EFF3118081F3F5
:101D50001188BFF34F8FBFF36F8F00BF0446044855
:101D600000F0BEF8204680F3118800BF10BD0000CF
:101D70005C02002010B500BF5021EFF3118081F309
:101D80001188BFF34F8FBFF36F8F00BF0446044825
:101D900000F0A6F8204680F3118800BF10BD0000B7
:101DA0001802002030B590F840500124AC40C56BBB
:101DB0006C60046863604468102C04D10468A260FD
:101DC0000468E16003E00468A1600468E26030BD7B
:101DD000704772B600BFFEE70146002291F821006D
:101DE000022808D00420886300BF002081F820006A
:101DF00000BF012070470868006820F00E000B68E3
:101E000018600868006820F001000B68186091F8FD
:101E1000403001209840CB6B5860012081F82100B0
:101E200000BF002081F8200000BF1046E2E700005C
:101E300070B50446002594F82100022803D0042040
:101E4000A063012548E02068006820F00E002168AA
:101E500008602068006820F00100216808601F49C0
:101E60002068884201D1012026E01C4914312068F5
:101E7000884201D110201FE018492831206888428B
:101E800001D1801518E015493C312068884201D104
:101E9000801411E0114950312068884202D14FF47A
:101EA000803009E00D4964312068884202D14FF446
:101EB000801001E04FF08070084908394860012027
:101EC00084F8210000BF002084F8200000BF606B70
:101ED00010B12046616B8847284670BD080002405B
:101EE00070B50446E06B05682068066894F84010F9
:101EF000042088402840002846D006F0040000282E
:101F000042D02068006800F0200028B920680068EE
:101F100020F004002168086057492068884201D1F8
:101F2000042027E0544914312068884201D1402020
:101F300020E0514928312068884201D1001519E07C
:101F40004D493C312068884202D14FF4804011E075
:101F5000494950312068884202D14FF4802009E07D
:101F6000454964312068884202D14FF4800001E085
:101F70004FF08060404908394860E06A00287AD014
:101F80002046E16A884776E094F8401002208840B5
:101F90002840A0B306F0020088B32068006800F073
:101FA000200040B92068006820F00A00216808601D
:101FB000012084F8210030492068884201D10220A4
:101FC00028E02D4914312068884201D1202021E0E9
:101FD000294928312068884201D140151AE0264954
:101FE0003C312068884202D14FF4005012E022496F
:101FF00050312068884203D14FF400300AE017E0E6
:102000001D4964312068884202D14FF4001001E07C
:102010004FF0007018490839486000BF002084F86C
:10202000200000BFA06A30B32046A16A884722E0A2
:1020300094F84010082088402840E0B106F00800DD
:10204000C8B12068006820F00E002168086094F88C
:10205000401001208840E16B48600120A06384F8B3
:10206000210000BF002084F8200000BF206B10B1C9
:102070002046216B884770BD0800024001460022BF
:1020800009B901207047164B0868C01A1423B0FB29
:10209000F3F08000086412480838C863022081F811
:1020A00021000868026843F6F0708243D1E9010319
:1020B0001843CB6818430B6918434B6918438B6965
:1020C0001843CB6918430243086802600020886304
:1020D000012081F82100002081F8200000BFD1E715
:1020E000080002402DE9F04104460D4616461F4601
:1020F0004FF0000800BF94F82000012802D1022010
:10210000BDE8F081012084F8200000BF94F8210090
:1021100001282CD1022084F821000020A06320682F
:10212000006820F00100216808603B4632462946DD
:102130002046FFF737FEE06A30B12068006840F0C3
:102140000E00216808600BE02068006820F00400A1
:10215000216808602068006840F00A002168086073
:102160002068006840F001002168086006E000BFB8
:10217000002084F8200000BF4FF002084046BFE76F
:102180002DE9F8470346002294466EE14FF001081E
:1021900008FA02F4D1F8008008EA0400A0427DD1D8
:1021A000DFF8DCA2D1F80480A8EB0A09D0453AD0C8
:1021B00014DCB8F1030F50D009DCB8F1000F31D0B6
:1021C000B8F1010F1CD0B8F1020F49D120E0B8F1ED
:1021D000110F18D0B8F1120F42D11EE0B9F5881FC7
:1021E00025D006DCB9F5803F20D0B9F5801F37D166
:1021F0001AE0B9F5001F18D0B9F5041F30D117E067
:10220000D1F80CC02DE0D1F80C8008F1040C28E0C6
:10221000D1F80C8008F1080C23E0D1F80C8008F10B
:102220000C0C1EE000BF00BF00BF00BF00BF00BF1E
:10223000D1F80880B8F1000F02D14FF0040C0BE088
:10224000D1F80880B8F1010F03D14FF0080C1C61E0
:1022500002E04FF0080C5C6103E04FF0000C00E07E
:1022600000BF00BFFF2801D8984601E003F1040831
:102270004646FF2802D84FEA820803E0A2F1080888
:102280004FEA88084746D6F800804FF00F0909FA50
:1022900007F928EA09080CFA07F900E088E048EA9B
:1022A0000908C6F80080D1F8048008F08058B8F119
:1022B000805F7DD100BFDFF8CC81D8F8188048F06E
:1022C0000108DFF8C091C9F81880C846D8F818800E
:1022D00008F00108CDF8008000BF00BF4FEAB93810
:1022E0004FEA920958F829504FEA82784FEA187954
:1022F0004FF00F0808FA09F825EA0805DFF8888189
:10230000434502D14FF0000816E0DFF880814345D5
:1023100002D14FF001080FE0DFF87481434502D18C
:102320004FF0020808E0DFF86C81434502D14FF01E
:10233000030801E04FF004084FEA82794FEA197967
:1023400008FA09F848EA0505DFF84C814FEA9209D6
:1023500048F82950D1F8048008F48038B8F5803F57
:102360000AD1DFF83881D8F8008048EA0008DFF8A1
:102370002C91C9F8008009E0DFF82081D8F80080AE
:1023800028EA0008DFF81491C9F80080D1F8048029
:1023900008F40038B8F5003F10D1DFF8008108F1EB
:1023A0000408D8F8008048EA0008DFF8F09000E060
:1023B0005AE009F10409C9F800800DE0DFF8DC807B
:1023C00008F10408D8F8008028EA0008DFF8CC906B
:1023D00009F10409C9F80080D1F8048008F48018D4
:1023E000B8F5801F0ED1DFF8B48008F10808D8F8DE
:1023F000008048EA0008DFF8A49009F10809C9F84C
:1024000000800DE0DFF8948008F10808D8F800801B
:1024100028EA0008DFF8849009F10809C9F800806B
:10242000D1F8048008F40018B8F5001F0ED1DFF8C9
:102430006C8008F10C08D8F8008048EA0008DFF842
:102440005C9009F10C09C9F800800DE0DFF84C80C0
:1024500008F10C08D8F8008028EA0008DFF83C9062
:1024600009F10C09C9F80080521CD1F8008028FA43
:1024700002F8B8F1000F7FF489AEBDE8F8870000DC
:10248000000011100010024000080140000C014043
:102490000010014000140140080001400004014008
:1024A00010B5C26821EA020302EA010443EA0443C8
:1024B000036110BD0AB1016101E00B0403617047C3
:1024C00001480068704700002400002010B508484B
:1024D000006840F0100006490860032000F0AEF8E4
:1024E0000F2000F007F800F02BF8002010BD0000CE
:1024F0000020024070B504460E4800784FF47A710F
:10250000B1FBF0F00C490968B1FBF0F5284600F08A
:1025100011FC08B1012070BD102C07D20022214609
:10252000501E00F04DF80548046001E00120F2E77C
:102530000020F0E72C0000203000002028000020C0
:1025400008B500BF1448806940F001001249886155
:102550000846806900F00100009000BF00BF00BF86
:102560000846C06940F08050C8610846C06900F064
:102570008050009000BF00BF00220F21901E00F08D
:102580001FF800BF0549486820F0E06040F0007087
:10259000486000BF08BD000000100240000001407C
:1025A00001460846002809DB00F01F0301229A407B
:1025B00043099B0003F1E023C3F8002100BF7047EB
:1025C0002DE9F05F80460D461646002702F0B8FA66
:1025D000074639462A46334601F00700C0F1070A8C
:1025E000BAF1040F02D94FF0040A01E0C0F1070A62
:1025F000D14600F1040ABAF1070F02D24FF0000AE7
:1026000001E0A0F1030AD4464FF0010A0AFA09FAE0
:10261000AAF1010A0AEA020A0AFA0CFA4FF0010BBF
:102620000BFA0CFBABF1010B0BEA030B4AEA0B04B0
:102630002146404602F08CFABDE8F09F00BF00F052
:102640000702064B19684FF6FF031940044B0B4372
:1026500043EA0221014B196000BF70470CED00E016
:102660000000FA0570B504460D460CB9012070BD96
:102670005A48006800F00700A8420ED25748006888
:1026800020F007002843554908600846006800F01C
:102690000700A84201D00120E9E7207800F00200FD
:1026A00002281DD1207800F00400042805D14C48F0
:1026B000406840F4E0604A494860207800F0080033
:1026C000082805D14648406840F4605044494860B5
:1026D0004348406820F0F000A16808434049486042
:1026E000207800F0010078B36068012806D13C48EA
:1026F000006800F4003090B90120B8E76068022853
:1027000006D13748006800F0007040B90120AEE7FC
:102710003348006800F0020008B90120A7E73048FC
:10272000406820F00300616808432D494860FFF7C6
:10273000C7FE064609E0FFF7C3FE801B41F2883161
:10274000884202D9032092E707E02548406800F05C
:102750000C006168B0EB810FEDD12048006800F0FB
:102760000700A8420ED91D48006820F00700284342
:102770001A4908600846006800F00700A84201D026
:10278000012074E7207800F00400042807D11448E1
:10279000406820F4E060E16808431149486020780F
:1027A00000F00800082808D10D48406820F4605067
:1027B000216940EAC1000A49486000F03FF8084931
:1027C0004968C1F30311074A515CC84006490860D3
:1027D00006480068FFF78EFE002048E70020024010
:1027E00000100240888600083000002028000020E9
:1027F00001480068704700003000002000B5FFF776
:10280000F7FF04494968C1F30221034A515CC840FB
:1028100000BD0000001002409886000800B5FFF7D8
:10282000E7FF04494968C1F3C221034A515CC8402B
:1028300000BD00000010024098860008F0B585B089
:102840000FF26C0C9CE8E01001A8A0E8E0101CA5B9
:102850002D68009500210022002300240020194D3E
:10286000696801F00C05F5B1042D02D0082D19D1CD
:1028700001E0154819E001ADC1F38346AC5D01F4F8
:10288000803555B10F4D6D68C5F340451DF80520E5
:102890000D4D6543B5FBF2F302E00C4D04FB05F36F
:1028A000184602E000BF084800BF00BF05B0F0BDF9
:1028B00002030405060708090A0B0C0D0E0F101081
:1028C000010200000010024000127A0000093D00E1
:1028D000F8B504460CB90120F8BD207800F00100DD
:1028E000002878D0F848406800F00C0004280CD08C
:1028F000F548406800F00C00082811D1F248406803
:1029000000F48030B0F5803F0AD1EF48006800F451
:10291000003000285FD0606800285CD10120DBE730
:1029200000BF6068B0F5803F06D1E748006840F41A
:102930008030E549086028E0606858B9E2480068DE
:1029400020F48030E04908600846006820F48020C8
:1029500008601AE06068B0F5A02F0BD1DA48006873
:1029600040F48020D84908600846006840F4803070
:1029700008600AE0D448006820F48030D24908603A
:102980000846006820F48020086000BF606888B1B5
:10299000FFF796FD054606E0FFF792FD401B642811
:1029A00001D9032098E7C848006800F400300028E7
:1029B000F2D010E0FFF784FD054606E0FFF780FD4A
:1029C000401B642801D9032086E7BF48006800F453
:1029D00000300028F2D1207800F00200022857D100
:1029E000B948406800F00C0050B1B748406800F0AA
:1029F0000C00082818D1B448406800F4803098B919
:102A0000B148006800F0020020B12069012801D01F
:102A1000012061E7AC48006820F0F800616940EAF5
:102A2000C100A949086033E02069E8B10120A74945
:102A30000860FFF745FD054606E0FFF741FD401B36
:102A4000022801D9032047E79F48006800F00200F0
:102A50000028F2D09C48006820F0F800616940EA44
:102A6000C1009949086013E0002098490860FFF709
:102A700027FD054606E0FFF723FD401B022801D98C
:102A8000032029E79048006800F002000028F2D1F6
:102A9000207800F0080008282DD1A069B8B10120E5
:102AA0008B490860FFF70CFD054606E0FFF708FDBF
:102AB000401B022801D903200EE78348406A00F03A
:102AC00002000028F2D0012001F08EF913E000206E
:102AD0007F490860FFF7F4FC054606E0FFF7F0FCCD
:102AE000401B022801D90320F6E67748406A00F02F
:102AF00002000028F2D1207800F00400042873D1ED
:102B000000277148C06900F0805070B900BF6E485E
:102B1000C06940F080506C49C8610846C06900F047
:102B20008050009000BF00BF01276A48006800F491
:102B30008070B0B96748006840F4807065490860EB
:102B4000FFF7BEFC054606E0FFF7BAFC401B642811
:102B500001D90320C0E65F48006800F480700028B7
:102B6000F2D000BFE068012806D15748006A40F063
:102B700001005549086227E0E06858B95248006AE8
:102B800020F00100504908620846006A20F0040065
:102B9000086219E0E06805280BD14B48006A40F054
:102BA0000400494908620846006A40F001000862D2
:102BB0000AE04548006A20F00100434908620846DF
:102BC000006A20F00400086200BFE068A0B1FFF7CF
:102BD00077FC054609E0FFF773FC401B41F28831A2
:102BE000884202D9032077E622E03748006A00F0E5
:102BF00002000028EFD012E0FFF762FC054608E073
:102C0000FFF75EFC401B41F28831884201D9032066
:102C100062E62D48006A00F002000028F0D1012F82
:102C200005D12948C06920F080502749C86100BFFC
:102C3000E069C8B32448406800F00C00082860D060
:102C4000E069022848D1002020490866FFF738FCD7
:102C5000054606E0FFF734FC401B022801D903209B
:102C60003AE61948006800F000700028F2D1206AA6
:102C7000B0F5803F07D11448406820F40030A168C7
:102C8000084311494860D4E9080108430E494968DE
:102C900021F4741108430C49486001200B4908666F
:102CA000FFF70EFC054607E03DE0FFF709FC401B7F
:102CB000022801D903200FE60348006800F00070E5
:102CC0000028F2D02FE00000001002400000424235
:102CD0008004424200700040002014490866FFF75B
:102CE000EFFB054606E0FFF7EBFB401B022801D98E
:102CF0000320F1E50E48006800F000700028F2D1D2
:102D000011E0E069012800D1E6E50948466806F4CB
:102D10008031206A814204D106F47011606A8142D8
:102D200001D00120D8E50020D6E500000000424295
:102D30000010024070B504462546681EB0F1807F41
:102D400001D301200FE0681E4FF0E02148610F2100
:102D50004FF0FF3001F0FCFE00204FF0E0218861D1
:102D600007200861002070BD30B502460B4600BF49
:102D700092F83C00012801D1022030BD012082F8E8
:102D80003C0000BF022082F83D00106844681068D3
:102D9000816824F070041868044310684460104D82
:102DA0001068A8420BD01068B0F1804F07D00D4DCD
:102DB0001068A84203D00C4D1068A84205D121F03C
:102DC00080015868014310688160012082F83D004D
:102DD00000BF002082F83C0000BF00BFCDE700002C
:102DE000002C0140000400400008004010B50446DB
:102DF0000CB9012010BD94F83D0028B9002084F8DA
:102E00003C00204600F026F8022084F83D00211DF9
:102E1000206801F0EBF9012084F8460000BF84F837
:102E20003E0001213F200155402001554120015520
:102E300000BF00BF012084F8420043200155442018
:102E400001554520015500BF012084F83D000020B8
:102E5000D0E7000008B50168B1F1804F0DD100BF87
:102E60001849C96941F00101164AD1611146C96981
:102E700001F00101009100BF23E0134A0168914273
:102E80000DD100BF0F49C96941F002010D4AD1615E
:102E90001146C96901F00201009100BF11E00B4A1F
:102EA000016891420DD100BF0649C96941F0040192
:102EB000044AD1611146C96901F00401009100BFC3
:102EC00000BF08BD001002400004004000080040A0
:102ED0002DE9F04104460D4600BF94F83C0001285E
:102EE00002D10220BDE8F081012084F83C0000BF3F
:102EF000022084F83D002068866826F0770626F4D4
:102F00007F46206886602868502833D00CDC202853
:102F100050D004DC00284BD0102851D149E0302893
:102F200049D040284CD139E060282DD0702807D0F6
:102F3000B0F5805F03D0B0F5005F41D10DE040E017
:102F4000D5E902136A68206801F09BF92068866859
:102F500046F077062068866033E0D5E902136A6898
:102F6000206801F08EF92068806840F48040216874
:102F7000886026E0EA686968206801F053FA502109
:102F8000206801F089F91CE0EA686968206801F0AE
:102F90005CFA6021206801F07FF912E0EA68696854
:102FA000206801F03FFA4021206801F075F908E03F
:102FB00000BF00BF00BF2968206801F06DF900E084
:102FC00000BF00BF012084F83D0000BF002084F84E
:102FD0003C0000BF00BF85E710B586B00446002066
:102FE00002900390049005902068B0F1804F21D1A9
:102FF00000BF3248806940F00800304988610846C7
:10300000806900F00800019000BF00BF0820029016
:1030100002200390059002A92948FFF7B1F800BFEC
:103020002849486820F4407040F0E06040F4807027
:10303000486041E024492068884221D100BF1F48F0
:10304000806940F008001D4988610846806900F0E9
:103050000800019000BF00BF1020029002200390E2
:10306000059002A91648FFF78BF800BF154948687C
:1030700020F4406040F0E06040F4006048601BE0F5
:1030800012492068884217D100BF0C48806940F07F
:1030900008000A4988610846806900F0080001902C
:1030A00000BF00BF4FF470700290022003900590A3
:1030B00002A90348FFF764F806B010BD00100240F3
:1030C000000C0140000001400004004000080040E6
:1030D00070B504460D46164600BF94F83C00012822
:1030E00001D1022070BD012084F83C0000BF36B140
:1030F000042E1BD0082E31D00C2E5ED145E029467F
:10310000206801F0D3F82068806940F00800216849
:1031100088612068806920F0040021688861206847
:103120008069296908432168886147E02946206849
:1031300001F0ECF82068806940F400602168886143
:103140002068806920F48060216888612068806937
:10315000296940EA0120216888612FE0294620681A
:1031600001F008F92068C06940F008002168C861D2
:103170002068C06920F004002168C8612068C06927
:10318000296908432168C86118E02946206801F0D0
:1031900025F92068C06940F400602168C861206892
:1031A000C06920F480602168C8612068C06929690D
:1031B00040EA01202168C86100E000BF00BF00BFF5
:1031C000002084F83C0000BF00BF8BE710B5044628
:1031D0000CB9012010BD94F83D0028B9002084F8F6
:1031E0003C00204600F025F8022084F83D00211D17
:1031F000206800F0FBFF012084F8460000BF84F83F
:103200003E0001213F20015540200155412001553C
:1032100000BF00BF012084F8420043200155442034
:1032200001554520015500BF012084F83D000020D4
:10323000D0E7704770B504460D4615B994F83E00C6
:103240000BE0042D02D13F20005D06E0082D02D1E5
:103250004020005D01E04120005D012801D00120F7
:1032600070BD1DB9022084F83E000EE0042D03D18C
:1032700002213F20015508E0082D03D10221402002
:10328000015502E002214120015501222946206812
:1032900000F0E6FF19492068884201D1012000E0D2
:1032A000002028B12068406C40F400402168486448
:1032B0001249206888420BD02068B0F1804F07D0B7
:1032C0000F492068884203D00E49206888420CD1FB
:1032D0002068806800F00706062E0CD02068006881
:1032E00040F001002168086005E02068006840F0B7
:1032F0000100216808600020B2E70000002C0140B6
:103300000004004000080040F8B504460E46174689
:1033100094F83E0020282ED106B10FB90120F8BD47
:1033200000BF94F83C00012801D10220F7E70120FA
:1033300084F83C0000BF20633A463146204601F045
:1033400079FA0546ADB9206B012811D100BF0020E4
:10335000009020680068009020684068009000BFDE
:1033600000BF2068C06840F010002168C86000E01D
:1033700001252846D3E70220D1E7000070B50546B5
:103380000C460F49286888420AD10E48A0F88040B0
:1033900001200D4908700D48006801F0F3FE0DE0B2
:1033A0000B492868884209D10A48A0F880400320C8
:1033B000054908700548006801F0E4FE70BD000092
:1033C0000038014014240020B40000201C0000201C
:1033D0000048004098240020704700002DE9F84F75
:1033E0000446206805682068C668206847694FF071
:1033F0000009CA4605F00F09B9F1000F0AD105F01E
:10340000200038B106F0200020B1204601F021F95B
:10341000BDE8F88FB9F1000F71D007F0010018B9BD
:1034200006F4907000286AD005F0010030B106F46F
:10343000807018B1206C40F00100206405F0040099
:1034400030B107F0010018B1206C40F00200206498
:1034500005F0020030B107F0010018B1206C40F017
:103460000400206405F0080048B106F0200010B9FF
:1034700007F0010018B1206C40F008002064206CB7
:1034800068B305F0200028B106F0200010B12046F6
:1034900001F0DFF820684069C0F3801A206C00F06A
:1034A000080010B9BAF1000F22D0204601F09CF8B4
:1034B0002068406900F04000B0B12068406920F009
:1034C000400021684861A06B50B15648A16B486329
:1034D000A06BFEF7ADFC10B1A06B416B88470CE010
:1034E0002046FFF779FF08E02046FFF775FF04E06C
:1034F0002046FFF771FF0020206489E7FFE7206B7B
:10350000012878D105F01000002874D006F01000D2
:10351000002870D000BF0020009020680068009054
:1035200020684068009000BF00BF2068406900F03C
:103530004000C0B3A06B006840681FFA80F8B8F183
:10354000000F2FD0A08D40452CDDA4F82E80A06B5D
:10355000806920281FD02068C06820F4807021680E
:10356000C8602068406920F0010021684861206837
:10357000406920F0400021684861202084F83E0026
:10358000002020632068C06820F010002168C86017
:10359000A06BFEF721FCA08DE28D801A81B220463F
:1035A000FFF7ECFE34E7FFE7A08DE18D401A1FFA2C
:1035B00080F8E08DE8B1B8F1000F1AD02068C0683B
:1035C00020F490702168C8602068406920F00100F4
:1035D00021684861202084F83E0000202063206894
:1035E000C06820F010002168C86041462046FFF7FF
:1035F000C5FE0DE7FFE705F0800030B106F0800062
:1036000018B1204601F062F902E705F0400030B140
:1036100006F0400018B1204601F001F8F8E600BFBE
:10362000F6E60000B944000810B504460CB90120C4
:1036300010BDA06900B100E000BF94F83D0028B9BA
:10364000002084F83C00204600F028F8242084F86C
:103650003D002068C06820F400502168C860204602
:1036600001F06AF82068006920F490402168086140
:103670002068406920F02A00216848612068C068FD
:1036800040F400502168C86000202064202084F8A5
:103690003D0084F83E000020CAE7000010B586B067
:1036A000044600200290039004900590744920681D
:1036B00088426FD100BF7348806940F480407149EF
:1036C00088610846806900F48040019000BF00BF17
:1036D00000BF0846806940F00400886108468069A0
:1036E00000F00400019000BF00BF481502900220C6
:1036F00003900320059002A96348FEF741FD4FF4B3
:103700008060029000200390049002A95E48FEF7BA
:1037100037FD5E485E4908600020486000215C4833
:1037200081608021C16000210161416181614FF4AC
:103730000051C161FEF7A2FC08B1FEF74AFB00BFD1
:103740005348A063446200BF504814385149086090
:103750001020486000214F4881608021C160002115
:103760000161416181614FF40051C161FEF786FC46
:1037700008B1FEF72EFB00BF46486063446200BFFD
:10378000002205212520FEF71BFF2520FEF708FF5C
:1037900073E0FFE74049206888426ED100BF394896
:1037A000C06940F480203749C8610846C06900F408
:1037B0008020019000BF00BF00BF0846806940F034
:1037C000080088610846806900F00800019000BF89
:1037D00000BF08150290022003900320059002A963
:1037E0002E48FEF7CDFC4FF40060029000200390BD
:1037F000049002A92948FEF7C3FC24482838284928
:103800000860002048600021254881608021C16057
:1038100000210161416181614FF40051C161FEF7F6
:103820002DFC08B1FEF7D5FA00BF1D48A063446225
:1038300000BF16483C381B49086010204860002132
:10384000184881608021C16000210161416181616E
:103850004FF40051C161FEF711FC08B1FEF7B9FA4F
:1038600000BF10486063446200BF0022052127208A
:10387000FEF7A6FE2720FEF793FE06B010BD00005F
:10388000003801400010024000080140580002408A
:10389000180200205C02002000480040000C01409B
:1038A000A0020020E402002070477047F7B50446EC
:1038B000154694F83D0020283DD1019800B10DB97E
:1038C0000120FEBD00BF94F83C00012801D1022078
:1038D000F7E7012084F83C0000BF01982062A5842E
:1038E000E58400202064212084F83D001348616BAA
:1038F00088621348616BC8621248616B08630020DC
:10390000616B486301AE23681A1D31682B46606BFA
:10391000FEF7E8FB6FF040002168086000BF002060
:1039200084F83C0000BF2068406940F080002168B6
:1039300048610020C5E70220C3E70000A545000854
:10394000DB450008CD4400087047704700BFFEE724
:1039500010B504464FF400510148FEF7A1FD10BD1B
:10396000000C014008B500BF1648406940F0010056
:10397000144948610846406900F00100009000BF0A
:1039800000BF002205210C20FEF71AFE0C20FEF7D6
:1039900007FE002205210D20FEF712FE0D20FEF786
:1039A000FFFD002205210E20FEF70AFE0E20FEF785
:1039B000F7FD002205210F20FEF702FE0F20FEF783
:1039C000EFFD08BD0010024010B5204A0021012083
:1039D00001F062FB1E4908601E4A0021012001F02F
:1039E0005BFB1D4908601D4B002201211C4801F0B2
:1039F00071FC1C4908601C4A04210A2001F060FA8D
:103A00001A4908601A4A00211A4801F0F5FB1A49C0
:103A100008601A4A00211A4801F0EEFB19490860B3
:103A2000194A0021194801F0E7FB19490860194AB1
:103A30000021194801F0E0FB18490860184A0021EC
:103A4000184801F0D9FB1849086010BD68860008C5
:103A50001C000020788600082000002058860008FE
:103A6000513900081800002040860008140000208A
:103A70008C8500085941000800000020B08500082E
:103A80006940000804000020D48500085D49000852
:103A900008000020F8850008ED4000080C00002018
:103AA0001C860008CD5F00081000002000B585B01E
:103AB0000020019002900390049000BF224880698A
:103AC00040F02000204988610846806900F020000D
:103AD000009000BF00BF00BF0846806940F00800AA
:103AE00088610846806900F00800009000BF00BFB0
:103AF00000BF0846806940F004008861084680697C
:103B000000F00400009000BF00BF00224FF40051FD
:103B10000E48FEF7CFFC4FF40050019001200290B8
:103B2000002003900220049001A90848FEF728FB1A
:103B30004FF41060019000200290039001A9044806
:103B4000FEF71EFB05B000BD00100240000C014056
:103B50000008014000B58DB0002009900A900B903C
:103B60000C90079008901C216846FCF72EFC4FF043
:103B70008040204908604720486000211D4881603E
:103B800044F61F61C1600021016180218161FFF75E
:103B90002DF908B1FEF71DF94FF48050099009A9DD
:103BA0001448FFF795F908B1FEF713F91148FFF72C
:103BB0000DFB08B1FEF70DF900200790089007A94A
:103BC0000C48FFF7D1F808B1FEF703F96020009028
:103BD0000020019002900490042269460548FFF7F6
:103BE00077FA08B1FEF7F5F80248FFF7F5F90DB0DE
:103BF00000BD0000B800002000B58DB00020099085
:103C00000A900B900C90079008901C216846FCF7D6
:103C1000DCFB2048204908604720486000211E48FE
:103C2000816044F61F61C1600021016180218161D2
:103C3000FFF7DCF808B1FEF7CCF84FF4805009909C
:103C400009A91548FFF744F908B1FEF7C2F8124870
:103C5000FFF7BCFA08B1FEF7BCF800200790089007
:103C600007A90D48FFF780F808B1FEF7B2F8602009
:103C700000900020019002900490002269460648BE
:103C8000FFF726FA08B1FEF7A4F80348FFF7A4F9F6
:103C90000DB000BD000400400001002000B58DB053
:103CA000002009900A900B900C90079008901C211E
:103CB0006846FCF78AFB2C482C490860472048607E
:103CC00000212A48816044F61F61C1600021016122
:103CD00080218161FFF78AF808B1FEF77AF84FF486
:103CE0008050099009A92148FFF7F2F808B1FEF7C2
:103CF00070F81E48FFF76AFA08B1FEF76AF800206C
:103D00000790089007A91948FFF72EF808B1FEF7A9
:103D100060F8602000900020019002900490002242
:103D200069461248FFF7D4F908B1FEF752F80422A9
:103D300069460E48FFF7CCF908B1FEF74AF80822A9
:103D400069460A48FFF7C4F908B1FEF742F80C22A9
:103D500069460648FFF7BCF908B1FEF73AF8034890
:103D6000FFF73AF90DB000BD0008004048010020FF
:103D700010B50B480B4908604FF4E1304860002152
:103D800008488160C16001610C21416100218161AD
:103D9000C161FFF749FC08B1FEF71BF810BD000038
:103DA000003801409001002010B50B480B49086015
:103DB0004FF4E1304860002108488160C160016132
:103DC0000C21416100218161C161FFF72DFC08B127
:103DD000FDF7FFFF10BD000000480040D4010020A7
:103DE00000BFFEE700BFFEE708B508490968C9083B
:103DF0004FF47A72B1FBF2F14143009100BF00BF72
:103E000000994A1E00920029F9D108BD3000002017
:103E100070B50446204604F0F5FA064600F024FF8B
:103E2000054602480068856370BD0000B8000020A8
:103E300070B50446204604F0E5FA064600F014FF8B
:103E4000054602480068C56370BD000048010020B7
:103E500070B50446204604F0D5FA064600F004FF8B
:103E6000054602480068056470BD00004801002056
:103E700070B50446204604F0C5FA064600F0F4FE8C
:103E8000054602480068456370BD000048010020F7
:103E900070B50446204604F0B5FA064600F0E4FE8C
:103EA000054602480068856370BD00004801002097
:103EB00070B50446204604F0A5FA064600F00AFF55
:103EC000054602480068456370BD000000010020FF
:103ED0000FB410B5BDF80800FFF79AFFBDF80A004F
:103EE000FFF7A6FFBDF80C00FFF7B2FFBDF80E000C
:103EF000FFF7BEFF10BC5DF814FB000070B5044670
:103F00000025062C3AD2DFE804F0030C151E2730FA
:103F10001C490968896B491C88B200F069FE054696
:103F20002CE019490968C96B491C88B200F060FE91
:103F3000054623E014490968096C491C88B200F061
:103F400057FE05461AE010490968496B491C88B2BA
:103F500000F04EFE054611E00B490968896B491CCB
:103F600088B200F045FE054608E008490968496B3B
:103F7000491C88B200F05AFE054600BF00BF284623
:103F800070BD0000B80000204801002000010020A2
:103F90002DE9F04704211E48FFF74CF900211D4888
:103FA000FFF748F900211C48FFF744F904211A489B
:103FB000FFF740F908211848FFF73CF90C21164893
:103FC000FFF738F95A20154988815A211348C181D1
:103FD000018241828182C18289464C464D464E46CD
:103FE0004F46C8464846FFF713FF2046FFF720FF1D
:103FF0002846FFF72DFF3046FFF73AFF3846FFF718
:1040000047FF4046FFF754FF00BFBDE8F0870000C0
:10401000B80000200001002048010020FC230020FF
:1040200070B504460D46062C1CD2DFE804F00307E9
:104030000B0F13172846FFF7EBFE13E02846FFF798
:10404000F7FE0FE02846FFF703FF0BE02846FFF7D7
:104050000FFF07E02846FFF71BFF03E02846FFF7A6
:1040600027FF00BF00BF70BD08B5002000900025ED
:1040700033E04FF0FF33002269461848006800F033
:10408000D3FE044604BB9DF8000058B99DF8030018
:104090009DF8021040EA01259DF80110104820F813
:1040A00011501AE09DF8000001280ED19DF8030080
:1040B0009DF8021040EA01259DF801002946FFF70E
:1040C000AFFF084802F044F807E09DF80000102810
:1040D00003D10548006801F055F8CAE71400002034
:1040E00008240020AC000020200000201CB517A1EF
:1040F00003C9CDE90001002426E02046FFF7FEFEBB
:10410000144921F814008DF80340084630F81400D3
:10411000000A8DF80400084610F814008DF8050018
:104120000021684600F038FD8DF80600601CC4B21E
:10413000062094FBF0F100FB1140C4B2684602F087
:1041400007F8962000F012FED7E70000550B00009C
:10415000000000BBFC2300204FF4FA710448006803
:1041600001F01EF900BF012000F000FEFBE7000097
:104170001800002010B503F0B9F9012801D002F0B1
:10418000C7FB10BD00B58FB0282105A8FCF71DF9AD
:1041900014216846FCF719F90120059000040690E7
:1041A000002007900120099002200C90C1030D917E
:1041B0004FF4E0110E9105A8FEF78AFB08B1FDF758
:1041C00008FE0F20009002200190002002904FF482
:1041D000806003900020049002216846FEF742FAB6
:1041E00008B1FDF7F6FD0FB000BD704710B50268CD
:1041F000184B984208D0B0F1804F05D0164B98422A
:1042000002D0164B984203D122F070024B681A4339
:10421000104B984208D0B0F1804F05D00E4B984219
:1042200002D00E4B984203D122F44072CB681A435D
:1042300022F080034C6943EA040202608B68C36287
:104240000B688362034B984201D10B69036301231E
:10425000436110BD002C01400004004000080040F4
:1042600030B501F01F05012404FA05F3046A9C43EC
:104270000462046A01F01F0502FA05F52C4304628A
:1042800030BD30B50C46816821F47F4142EA0325F8
:1042900025432943816030BD0A46816821F07001C1
:1042A00042F00703194381607047000030B5056A8A
:1042B00025F001050562026A4368846924F07004F0
:1042C00024F003040D682C4322F002028D682A4377
:1042D0000D4DA84206D100BF22F00802CD682A4346
:1042E00022F00402084DA84207D123F4807323F47E
:1042F00000734D692B438D692B43436084614D6886
:104300004563026230BD0000002C014030B5056AF3
:1043100025F010050562026A4368846924F4E044CC
:1043200024F440740D6844EA052422F020028D68CC
:1043300042EA05120E4DA84207D100BF22F08002CA
:10434000CD6842EA051222F04002094DA84209D187
:1043500023F4806323F400634D6943EA85038D6988
:1043600043EA8503436084614D688563026230BD22
:10437000002C014030B5056A25F480750562026A9B
:104380004368C46924F0700424F003040D682C43CE
:1043900022F400728D6842EA05220F4DA84207D12F
:1043A00000BF22F40062CD6842EA052222F4806256
:1043B000094DA84209D123F4805323F400534D69D9
:1043C00043EA05138D6943EA05134360C4614D68F0
:1043D000C563026230BD0000002C014030B5056AA3
:1043E00025F480550562036A4468C26922F4E042FC
:1043F00022F440720D6842EA052223F400538D68CE
:1044000043EA0533064DA84204D124F480444D69A3
:1044100044EA85144460C2614D680564036230BD9E
:10442000002C014030B50B461446026A056A25F09F
:1044300001050562816921F0F00141EA041122F0D1
:104440000A021A438161026230BD30B50B46144640
:10445000056A25F0100505628169026A21F4704140
:1044600041EA043122F0A00242EA031281610262B1
:1044700030BD70B50546284601F080FD044614B1F4
:10448000D4E90010884770BD10B580220249034866
:10449000FEF73AFF10BD0000142400209001002018
:1044A00010B5802202490348FEF72EFF10BD000020
:1044B00098240020D401002070B505466C6A0020C5
:1044C000E085E0842046FEF787FF70BD70B50646A4
:1044D0000025746A20684069C0F3C01594F83D0057
:1044E000212805D125B10020E084204600F0A7F85E
:1044F00020684069C0F3801594F83E00222805D159
:1045000025B10020E085204600F06EF8206C40F0D8
:10451000100020642046FEF75FFF70BD70B50546B1
:104520006C6A2868006800F02000F8B90020E08577
:104530002068C06820F480702168C86020684069E5
:1045400020F00100216848612068406920F04000A7
:1045500021684861202084F83E00206B012805D1A5
:104560002068C06820F010002168C860206B012816
:1045700004D1A18D2046FEF701FF02E02046FFF79F
:1045800093F970BD70B505466C6A206B012805D1A2
:10459000A08D41082046FEF7F1FE02E02046FFF71D
:1045A00084F970BD70B505466C6A2868006800F033
:1045B000200070B90020E0842068406920F080006D
:1045C000216848612068C06840F040002168C860E8
:1045D00002E02046FFF7B8F970BD70B50446656A81
:1045E0002846FFF7B2F970BD0168C96821F49071DF
:1045F0000268D1600168496921F0010102685161D6
:10460000016B012905D10168C96821F01001026818
:10461000D160202180F83E1000210163704710B561
:1046200004462068C06820F040002168C86020204F
:1046300084F83D002046FFF787F9002010BD01688F
:10464000C96821F0C0010268D160202180F83D10C6
:104650007047F8B5044694F83E00222869D1A06856
:10466000B0F5805F0CD1206950B90025A66A20689A
:104670004068C0F308003080A06A801CA06215E08A
:10468000A56A0026A068B0F5805F03D0A06828B9AD
:10469000206918B920684068287004E020684068E4
:1046A00000F07F002870A06A401CA062E08D401ED0
:1046B00080B2E085A8BB2068C06820F02000216897
:1046C000C8602068C06820F480702168C8602068D5
:1046D000406920F0010021684861202084F83E00F4
:1046E000206B01281ED1002020632068C06820F0C4
:1046F00010002168C8602068006800F010001028D1
:104700000AD100BF00200090206800680090206857
:104710004068009000BF00BFA18D2046FEF72EFE2E
:1047200003E004E02046FFF7BFF80020F8BD0020BA
:10473000FCE70220FAE7000070B504462168096929
:1047400021F44051E2681143226811612269A16895
:104750001143626941EA02052168C96841F20C62AD
:10476000914329432268D1602168496921F440714D
:10477000A2691143226851612D4A2168914202D1F8
:10478000FEF74CF801E0FEF739F800EBC00101EB51
:10479000001162689200B1FBF2F100EBC00202EB83
:1047A000001263689B00B2FBF3F26423B2FBF3F2E6
:1047B00002EBC20303EB0212A1EB8201322202EBF5
:1047C00001116422B1FBF2F101F0F00100EBC00233
:1047D00002EB001263689B00B2FBF3F26423B2FBAE
:1047E000F3F201EB021200EBC00101EB0011636870
:1047F0009B00B1FBF3F100EBC00303EB0013666811
:10480000B600B3FBF6F36426B3FBF6F303EBC30683
:1048100006EB0313A1EB8301322303EB01116423A5
:10482000B1FBF3F101F00F0111442268916070BDFA
:104830000038014077B581B0044615460298A06261
:10484000A58500202064222084F83E001C48A16B2E
:1048500088621C48A16BC8621B48A16B08630020DA
:10486000A16B486302AE32682368191D2B46A06B0A
:10487000FDF738FC00BF0020009020680068009021
:1048800020684068009000BF00BF00BF002084F88F
:104890003C0000BF2068C06840F480702168C86098
:1048A0002068406940F00100216848612068406943
:1048B00040F0400021684861002004B070BD000055
:1048C0001D45000885450008CD440008014691F8C3
:1048D0003D00212828D18868B0F5805F0BD1086998
:1048E00048B90A6A1088C0F308000B685860086A63
:1048F000801C086205E00B6A581C086218780B6877
:104900005860C88C401E80B2C88458B90868C06816
:1049100020F080000B68D8600868C06840F0400054
:104920000B68D860002070470220FCE710B500BF7C
:104930005021EFF3118081F31188BFF34F8FBFF344
:104940006F8F00BF04460448FEF748FD204680F301
:10495000118800BF10BD00009001002008B500259F
:10496000002000900026B1E0FFF78EFDFFF798FDD4
:104970004FF0FF315648006800F04CFB0646002E11
:10498000F1D15448007801284ED15349B1F8800044
:10499000C11700EB5171C910A0EBC1010029E2D190
:1049A0004D49B1F88000C11700EB5171C1F3C70543
:1049B000002436E0484911F8340055282FD1E00092
:1049C000401C085C0A282AD1E000C01D085CBB28F6
:1049D00025D12146404800F0DFF8E100891D3E4A1C
:1049E000515C88421BD1E000801C1146085C8DF8A8
:1049F0000000E000C01C085C8DF80100E000001D14
:104A0000085C8DF80200E000401D085C8DF8030092
:104A100000231A4669463148006800F0ADFA601C70
:104A2000C4B2AC4252DAC5E72A48007803284DD117
:104A30002B49B1F88000C11700EB5171C910A0EBF0
:104A4000C101002942D12649B1F88000C11700EB0D
:104A50005171C1F3C705002436E0214911F8340033
:104A600055282FD1E000401C085C0A282AD1E0001C
:104A7000C01D085CBB2825D12146194800F08CF8E0
:104A8000E100891D164A515C88421BD1E000801C60
:104A90001146085C8DF80000E000C01C085C8DF831
:104AA0000100E000001D085C8DF80200E000401DE0
:104AB000085C8DF8030000231A4669460748006821
:104AC00000F05AFA601CC4B2AC42C6DB4CE70000EE
:104AD0001C000020B400002014240020140000203A
:104AE0009824002010B500BF5021EFF3118081F30E
:104AF0001188BFF34F8FBFF36F8F00BF0446044888
:104B0000FEF76CFC204680F3118800BF10BD00004A
:104B1000D401002000BFFEE7490050EAC12018BFC1
:104B200004204A0D18BF40F0010040F2FF72B2EBC2
:104B3000515F08BF40F00200012808BF0520704700
:104B400002480068C0F30220704700000CED00E04E
:104B500010B5002804DB0A07130E054A135406E0BB
:104B60000A07140E034A00F00F031B1FD45410BD94
:104B700000E400E018ED00E0EFF311807047EFF380
:104B800005807047EFF31080704730380A2801D253
:104B9000012070470020704730B50246002404EB26
:104BA000C104145D012505EBC105555D2C440225AA
:104BB00005EBC105555D2C44032505EBC105555D8D
:104BC0002C44042505EBC105555D2C44052505EB5A
:104BD000C105555D2C44072505EBC105555D6319DD
:104BE000FF2493FBF4F504FB1534E0B230BD000064
:104BF0002DE9F05F8246AAF2413003F0CCF98046FD
:104C00000022084B03F042F806460022064B03F050
:104C1000D9F9044603F092F91FFA80FB5846BDE823
:104C2000F09F000000409F4000E070402DE9F05FE1
:104C30008246AAF5FA7003F0AEF980460022084BCE
:104C400003F024F806460022064B03F0BBF90446A5
:104C500003F074F91FFA80FB5846BDE8F09F00008E
:104C600000409F40008066402DE9FC5F83460021A4
:104C7000584603F0DBFB02D24FF0000B06E011496F
:104C8000584603F04DFC01D2DFF838B0584603F027
:104C900081FB00220C4BCDE9000102F0F7FF8046BA
:104CA00000220A4B03F08EF906460022084B02F060
:104CB00045FF044603F042F91FFA80FA5046BDE86A
:104CC000FC9F00000000344300E0704000409F4023
:104CD00000088A402DE9F14F82B0029803F05AFB98
:104CE000804600220A4B02F0D1FF06460022094B03
:104CF00003F068F904460022074B02F01FFF8246CA
:104D000003F01CF980B201900198BDE8FE8F00000D
:104D10000080664000409F4000407F40FDF7D6FB8A
:104D2000FFF730FAFEF7C2FEFEF71CFEFEF712FF99
:104D3000FEF762FFFEF7B2FFFFF71AF8FFF734F84D
:104D4000FFF726F905A1084801F0E2F900F02AF87A
:104D5000FEF73AFE00F046F800BFFEE7496E6974C0
:104D6000206F6B210D0A00009001002070B50546F0
:104D7000FFF705FF48B9FFF705FF30B9084800689D
:104D8000022805D1FFF7F8FE10B16FF0050404E02A
:104D9000002415B1284601F0AFFB204670BD00008D
:104DA0008400002010B5FFF7EAFE48B9FFF7EAFEDD
:104DB00030B90B480068022805D1FFF7DDFE10B1BD
:104DC0006FF0050409E00648006820B90120044995
:104DD0000860002401E04FF0FF34204610BD0000C1
:104DE0008400002010B5FFF7CAFE48B9FFF7CAFEDD
:104DF00030B90C480068022805D1FFF7BDFE10B19C
:104E00006FF005040CE007480068012806D1022075
:104E10000449086001F054FC002401E04FF0FF3425
:104E2000204610BD840000202DE9F84307460D46BA
:104E300091461C463E464FF00008FFF7A0FE48B9D9
:104E4000FFF7A0FE30B91C48006802281FD1FFF709
:104E500093FEE0B10EB105B114B16FF0030828E084
:104E6000002000906A462946304602F029F90128C0
:104E700002D06FF002081CE00098D0B14FF08050D3
:104E80000E490860BFF34F8FBFF36F8F11E006B17B
:104E900015B96FF003080CE022462946304602F0AF
:104EA0005BF8012805D014B16FF0010801E06FF044
:104EB00002084046BDE8F8838400002004ED00E0CD
:104EC0002DE9F84305460E4614464FF00009FFF75A
:104ED00056FE00284BD1FFF755FE002847D1254844
:104EE0000068022803D1FFF747FE00283FD1002DBC
:104EF0003DD0002E3BD04FF0FF37BCB1A06858B179
:104F0000E068502808D3206930B105FB06F06169DC
:104F1000814201D301270AE0A06840B9E06830B9B6
:104F2000206920B9606910B9002700E00027012F2F
:104F300009D10020009031462846A368226901F07B
:104F400090FD814606E02FB900223146284601F047
:104F500059FD8146B9F1000F09D014B1D4F8008091
:104F600001E04FF000084146484601F057FA484634
:104F7000BDE8F883840000202DE9F84307460D467C
:104F800091461C463E464FF00008FFF7F8FD48B931
:104F9000FFF7F8FD30B91D480068022820D1FFF75F
:104FA000EBFDE8B10EB105B114B16FF003082AE0D2
:104FB0000020009000236A462946304601F0E0FEBA
:104FC000012802D06FF002081DE00098D8B14FF020
:104FD00080500F490860BFF34F8FBFF36F8F12E00F
:104FE00006B115B96FF003080DE0002322462946EB
:104FF000304601F0F1FD012805D014B16FF0010831
:1050000001E06FF002084046BDE8F883840000200C
:1050100004ED00E0F8B504460D46264600270EB91B
:105020003F1F33E0FFF7ABFD48B9FFF7ABFD30B9E9
:105030001748006802281DD1FFF79EFDD0B115B1B9
:105040006FF0030722E0002000906A4600213046FE
:1050500002F036F8012802D06FF0020716E000983F
:10506000A0B14FF080500B490860BFF34F8FBFF3E2
:105070006F8F0BE02946304602F088F8012805D0F2
:1050800015B16FF0010701E06FF002073846F8BD77
:105090008400002004ED00E02DE9F84305460F46AA
:1050A00014464FF00008FFF76AFD002864D1FFF7AF
:1050B00069FD002860D132480068022803D1FFF75B
:1050C0005BFD002858D1002D56D0AF4254D84FF088
:1050D000FF3664B1A06820B1E068502801D30126F2
:1050E00006E0A06820B9E06810B9002600E00026BC
:1050F000701C70B3012D23D1012E09D10320009023
:10510000002211460120A36801F0ABFC804605E0B7
:1051100003220021012001F075FC8046B8F1000F48
:105120001DD0E7B100231A461946404601F054FD50
:10513000012814D0404601F087F94FF000080EE036
:10514000012E07D139462846A26801F029FC804685
:1051500005E011E03946284601F0F4FB8046B8F13D
:10516000000F09D014B1D4F8009001E04FF000090D
:105170004946404601F052F94046BDE8F883000038
:1051800084000020F8B50446254600260DB9361FD8
:105190002CE0FFF7F4FC48B9FFF7F4FC30B91448F1
:1051A0000068022818D1FFF7E7FCA8B100200090A2
:1051B0006946284601F060FE012802D06FF0020621
:1051C00014E0009890B14FF080500A490860BFF396
:1051D0004F8FBFF36F8F09E000231A461946284608
:1051E00001F0FAFC012801D06FF002063046F8BD4C
:1051F0008400002004ED00E02DE9F04786B08046F1
:105200008946144600200490FFF7B9FC00285DD1C0
:10521000FFF7B8FC002859D12D480068022803D1B7
:10522000FFF7AAFC002851D1B8F1000F4ED080261C
:105230001825002005900DF1140A471E44B320687C
:1052400008B1D4F800A0A06900B1A5692DB1382D2E
:1052500003D8207900F0010018B1002006B0BDE8A5
:10526000F087606908B160698608A06840B1E068AD
:105270005C2805D3206918B1606908B1012708E0EE
:10528000A06830B9E06820B9206910B9002700E0B3
:105290000027012F0CD12169A0684B463246CDE989
:1052A000005102905146404602F0C4F804900DE0CF
:1052B00067B904A8B2B24B465146CDE9005040460A
:1052C00002F086F8012801D0002004900498C5E778
:1052D000840000202DE9FE4F0646894692461C4672
:1052E00000200290FFF74BFC002851D1FFF74AFC49
:1052F00000284DD128480068022803D1FFF73CFC64
:10530000002845D1002E43D0082000F089FD054635
:10531000002D3DD02E60C5F804A0B9F1000F01D1D9
:10532000002700E001274FF0FF384FF0000B94B149
:10533000206808B1D4F800B0A06828B1E06830282F
:1053400002D34FF0010808E0A06830B9E06820B946
:105350004FF0000801E04FF00008B8F1010F0BD149
:105360000E49A0682B463A46CDE900100121584667
:1053700002F001FB02900BE0B8F1000F08D10748E2
:105380002B463A4601210090584602F0D9FA029085
:105390000298BDE8FE8F00008400002073440008DE
:1053A000F8B505460E462F46FFF7E9FB48B9FFF76B
:1053B000E9FB30B90E480068022805D1FFF7DCFB95
:1053C00010B16FF0050411E017B96FF003040DE0A0
:1053D00000200346324604210090384602F040FB8C
:1053E000012801D1002401E06FF002042046F8BD3D
:1053F000840000202DE9F04105460E461648076856
:1054000016480068001D00F0C5FE681C38B936B1AA
:1054100012480168091D124800F012FF1AE07C19B9
:105420000E4800684460BC4207D20C480168091D60
:105430000C48006800F0EAFE0CE008480168091D0D
:105440000948006800F0E2FE08480068844201D282
:1054500006480460BDE8F0814800002034000020C8
:10546000180800203C0000203800002064000020C4
:1054700010B5044600F0F0FE24480068401C2349A3
:1054800008602348006840B9214804600846006865
:1054900001280DD100F028FA0AE01E48006838B94A
:1054A0001B480068C06AE16A884201D81848046055
:1054B00019480068401C1849086008460068606484
:1054C0001649E06A0968884202D91449E06A08600E
:1054D000E16A01EB8101124A02EB8100211D00F01B
:1054E000AFFE00F0E3FE0B48006868B108480068B2
:1054F000C06AE16A884207D24FF0805009490860CB
:10550000BFF34F8FBFF36F8F10BD0000440000202A
:105510003400002050000020600000204C000020DB
:105520006803002004ED00E008B500F095FE124885
:105530000068E8B9114800F059FE114800F056FE25
:105540000E48104908600E480F49086000200F4BB4
:105550000F4A102100900A2001F083FA06490860E2
:105560000846006820B10BA10348006800F056FF10
:1055700000F09CFE08BD0000780000202C080020F0
:105580004008002070000020740000205408002013
:10559000A4080020546D72510000000010B516E000
:1055A00000F05AFE0C48C068C468201D00F0F2FDEF
:1055B0000A480068401E0949086009480068401E02
:1055C0000749086000F072FE204600F05EF80448CB
:1055D00000680028E4D110BD040800204400002029
:1055E0004000002070B504460D46206C70B1216C5F
:1055F000E0680844E0606168E068884201D32068A0
:10560000E0602846226CE168FAF792FE70BD2DE951
:10561000F04104460F4615464FF00008A66B206C7B
:1056200040B9206860BB606802F018F8804600202E
:10563000606025E07DB93946226CA068FAF778FEF3
:10564000216CA0680844A060D4E90110884217D3F7
:105650002068A06014E03946226CE068FAF768FE22
:10566000216CE068401AE0602168E068884203D25B
:10567000216C6068401AE060022D01D106B1761EEF
:10568000701CA0634046BDE8F08110B5044694F854
:10569000590030B9206B00F027FE204600F024FEB0
:1056A0001AE094F85900012803D1204600F01CFEAE
:1056B00012E094F85900022801D1012000E00020F6
:1056C00050B900BF502080F31188BFF34F8FBFF354
:1056D0006F8F00BF00BFFEE710BD01464A6A22B1CE
:1056E0000A6B1268C2F1380000E000207047000029
:1056F0000146084A126812680AB9012200E0002235
:105700000A600A6822B9034A1268D268106800E089
:10571000002070477000002030B54FF4A0531748A8
:1057200000F007042CB1C01D20F00700134C041B2F
:105730001B1B0246124C22600024114D6C60D018D5
:10574000083820F007000F4C206000240D4D2D6814
:105750006C600C4D2D682C601146441A4C60094C4D
:1057600024680C60084D4C682C60084D4C682C6017
:105770004FF00044064D2C6030BD0000FC0F0020AF
:105780008800002090000020980000209400002055
:105790009C00002000BFFFF701FF064800680128B9
:1057A000F9D94FF0805004490860BFF34F8FBFF321
:1057B0006F8FF0E76803002004ED00E02DE9F04171
:1057C00006460D4617469846069C0DB9246000E033
:1057D0002760E66325640121204601F0B1F984F8D1
:1057E0004C80BDE8F0812DE9F05F82460F4690467F
:1057F0009B460A9E0C9C4FEA8801A522206BFAF773
:10580000DCFDA8F10100216B01EB800929F00709FB
:1058100009F0070008B9012000E0002050B900BFDE
:10582000502080F31188BFF34F8FBFF36F8F00BFFD
:1058300000BFFEE7002507E0795D04F13400415523
:10584000785D00B902E06D1C102DF5D300BF00217A
:1058500043200155382E00D33726E662E664002047
:105860002065201D00F0CFFC04F1180000F0CBFCF7
:105870002461C6F13800A06164620020606584F88C
:1058800058005A465146484600F08EFB20600B985F
:1058900008B10B980460BDE8F09F2DE9F04706467B
:1058A0000D4617469846DDE908940DB1012000E049
:1058B000002050B900BF502080F31188BFF34F8FF4
:1058C000BFF36F8F00BF00BFFEE75CB1FFF72CFE98
:1058D0002660A561E761C4F82080C4F82490201DEB
:1058E00000F091FCBDE8F08710B5002407E004EB60
:1058F00084010F4A02EB810000F078FC641C382C14
:10590000F5D30C4800F072FC0B4800F06FFC0B481C
:1059100000F06CFC0A4800F069FC0A4800F066FCE4
:1059200004480949086004480849086010BD00009F
:1059300068030020C8070020DC070020F0070020D3
:105940000408002018080020380000203C00002037
:1059500010B50146164800E0006803688B42FBD38F
:105960000246436813448B4204D143684C68234485
:10597000436001460A464B6813440468A34211D1B0
:105980000C4C03682468A34208D04B680468646820
:1059900023444B6003681B680B6005E0054B1B68E4
:1059A0000B6001E003680B60884200D0016010BD0D
:1059B00088000020900000202DE9F04104460D46AB
:1059C00016461F464FF0000865602461B5420CD8AA
:1059D000F01BA169884202D34FF0010811E0211D9C
:1059E0000948006800F012FC0BE0BE4204D2BD4240
:1059F00002D34FF0010804E0211D0448006800F0C4
:105A000005FC4046BDE8F0817400002070000020D5
:105A100070B5054600F020FCA86B08B9012400E031
:105A2000002400F043FC204670BD70B5054600F030
:105A300013FCA86BE96B884201D1012400E000242B
:105A400000F034FC204670BDF8B505460F461648F8
:105A50000068C068C468201D00F09CFBE069012854
:105A60001DD1A06941192B463A462046FFF7A4FFF5
:105A7000A8B1002003462A4601460090204601F0C6
:105A8000EFFF064656B900BF502080F31188BFF3E0
:105A90004F8FBFF36F8F00BF00BFFEE700BF2046F0
:105AA000616A8847F8BD000070000020F0B587B03B
:105AB00082E00398002811DA04AE56B900BF5020E6
:105AC00080F31188BFF34F8FBFF36F8F00BF00BF0C
:105AD000FEE7D6E90020B168904700BF0398002890
